:02000000E8C056
:140034009A039A0399039803970396039503940393039303B9
:140048009203910390038F038E038D038C038C038A038A03FD
:14005C00890388038703860385038403830382038103800345
:140070007F037E037D037C037B037A03790378037703760395
:140084007503740373037203710370036F036E036C036C03E6
:140098006A036903680367036603650364036303620361033F
:1400AC005F035E035D035C035B035A0358035703560355039D
:1400C00054035303510350034F034E034D034B034A034903FE
:1400D40048034603450344034303410340033F033E033D0365
:1400E8003B033A0339033703360335033403320331032F03D0
:1400FC002E032D032C032A032903280326032503240322033F
:1401100021031F031E031D031B031A031803170316031403B4
:140124001303120310030F030D030C030B030903080306032A
:140138000503030302030003FF02FD02FC02FB02F902F802AD
:14014C00F602F502F302F202F002EF02ED02EC02EA02E90230
:14016000E702E602E402E202E102E002DE02DD02DB02D902B4
:14017400D802D702D502D302D202D002CF02CD02CB02CA0239
:14018800C802C702C502C402C202C002BF02BE02BC02BA02C2
:14019C00B902B702B502B402B202B002AF02AE02AC02AA024D
:1401B000A902A702A502A402A202A0029F029D029C029A02DA
:1401C400980200003F065B4F666D7D077F6FCFEFD2E0CDBF5D
:1401D800DEBFC051D0400AEA08830024EEE9F2E012E0E23AFB
:1401EC00F10711F00192FBCF0083E4E3F0E0A0E0B1E011E08D
:1402000000E00BBFE23DF10721F0C89531960D92F9CF6BD052
:14021400FFCF09D2580105E010E09501CED15801B694A794EC
:14022800B694A7944427552702C04F5F5F4F4A155B05D8F3AE
:14023C00FBC18EE087B988B98FEF8AB922242BB881E084B97B
:1402500028980895F4D1442755270BC06627772702C06F5F0B
:140264007F4F6537E4E07E07D0F34F5F5F4F4017510790F382
:14027800E7C1F894E0DF222425BE209269002DBA20926E0034
:14028C0020926F002092700020926B0020926C0020926D00C1
:1402A000209268002092640078940895AA92BA9222242092F1
:1402B4007A0020927C0080E880BF87EC80937A0020907A00BD
:1402C80024FEFCCFA0907800BB2420917900332700E011E059
:1402DC0070D1A00EB11E8501B990A99008952397C6DF54C038
:1402F0002224332430929F0220929E02662777273092A10218
:140304002092A002D1DF1093A1020093A00219C080919E02DC
:1403180090919F02029690939F0280939E026F5F7F4F8AE9F1
:14032C0091E020909E0230909F028215930508F414C0A0906C
:140340009E02B0909F0280E091E0FB01EE0FFF1FE80FF91F31
:14035400208031804090A0025090A10242145304B8F224E6EE
:1403680030E085010ED1680124E630E0850107D12AE030E011
:14037C0006D178012AE030E08501FFD0A80170706A8359835C
:1403900048839701860103D0ABCF239608953CD169015801FC
:1403A4002397EB84FC844D85289A4A83F982E8829601850139
:1403B80002D0239617C12CD1690158012397EB84FC844D8593
:1403CC00F982E8829601850171D04A83F982E882960185010B
:1403E0000AD0242E20942A82F982E8829601850102D02396F0
:1403F400FBC00ED1790158012697C888D9886A8944272BC0D1
:1404080086E090E09D838C8381E09B838A83D982C882970112
:14041C00850123D060FF0EC08CE090E09D838C83222433247E
:140430003B822A82D982C8829701850114D00DC086E090E005
:140444009D838C83222433243B822A82D982C88297018501AC
:1404580006D066954395483098F22696CCC0D6D06901580134
:14046C002497EE84FF84688979894A895B896030670769F4C7
:14048000289A26E030E08A0180D01B830A83F982E88296010E
:1404940085014ED00CC0289826E030E08A0173D01B830A8315
:1404A800F982E8829601850141D0289A2496A3C0B1D0690163
:1404BC0058012497EA84FB8428988AE090E09B838A83F982EB
:1404D000E882960185012ED0289A82E090E09B838A83F98259
:1404E400E8829601850124D0249677C0B0D0A22EC02ECBB8D7
:1404F8004A2D55274130E0E05E0749F04230E0E05E0741F066
:14050C004330E0E05E0739F008C04198439A05C0419A429822
:1405200002C0429A439802E010E094DE88B18E6088B996C04C
:140534006FD07901B801CA84DB84AC84BD84442755271BC061
:1405480023E084E992E0FB01E80FF91F0081CCDF22E084E917
:14055C0092E0F701E80FF91F00810058C3DF21E084E992E0B7
:14057000F601E80FF91F0081BBDF4F5F5F4F4A155B0510F338
:140584003CC0689401C0E894EA92FA928A93EE24FF2480E173
:14059800000F111FEE1CFF1CE216F30618F0E21AF30A039561
:1405AC008A95A1F716F40E2D1F2D8991F990E99008950A929E
:1405C0001A928A939A93029FC001129F900D039F900D8C01B5
:1405D40099918991199009900895A990B990C990D990E99033
:1405E800F9900895A990B990C990D990E990F99049915991CF
:1405FC000895A990B990C990D990E990F9904991599169914A
:14061000799108957A936A935A934A93FA92EA92DA92CA928B
:14062400BA92AA9208955A934A93BA92AA920895A990B9902C
:140638004991599108957A936A935A934A9308954991599118
:14064C006991799108955A934A93DA92CA92BA92AA92089542
:0E066000A990B990C990D990499159910895E7
:00000001FF
