:02000000F3C04B
:14003400000002000400060008000A000C000E00100012005E
:140048001400160018001A001C001E00200022002400260082
:14005C0028002A002C002E00300032003400360038003A00A6
:140070003C003E00400042004400460048004A004C004E00CA
:14008400500052005400560058005A005C005E0060006200EE
:140098006400660068006A006C006E00700072007400760012
:1400AC0078007A007C007E00800082008400860088008A0036
:1400C0008C008E00900092009400960098009A009C009E005A
:1400D400A000A200A400A600A800AA00AC00AE00B000B2007E
:1400E800B400B600B800BA00BC00BE00C000C200C400C600A2
:1400FC00C800CA00CC00CE00D000D200D400D600D800DA00C6
:14011000DC00DE00E000E200E400E600E800EA00EC00EE00E9
:14012400F000F200F400F600F800FA00FC00FE00000102010B
:140138000401060108010A010C010E01100112011401160127
:14014C0018011A011C011E01200122012401260128012A014B
:140160002C012E01300132013401360138013A013C013E016F
:14017400400142014401460148014A014C014E015001520193
:140188005401560158015A015C015E016001620164016601B7
:14019C0068016A016C016E01700172017401760178017A01DB
:1401B0007C017E01800182018401860188018A018C018E01FF
:1401C40090013F0006005B004F0066006D007D0007007F00D1
:1401D8006F0077007C0039005E0079007100005FCFEFD2E061
:1401EC00CDBFDEBFCE51D0400AEA08830024E4EBF2E012E071
:14020000E93BF10711F00192FBCF0083E4E3F0E0A0E0B1E045
:1402140011E000E00BBFE83EF10721F0C89531960D92F9CF81
:1402280097D0FFCF222428B88FE387B98FEF85B984B98AB979
:14023C0056985E98089547D1442755270BC06627772702C076
:140250006F5F7F4F6537E4E07E07D0F34F5F5F4F401751074B
:1402640090F33AC14CD1A22EC02EC5B84A2D55274130E0E08C
:140278005E0749F04230E0E05E0749F04330E0E05E0749F033
:14028C000BC088B18F6D88B907C088B18F6E88B903C088B1E3
:1402A0008B6F88B902E010E0CCDF88B1897C88B92FC119D139
:1402B4006627442707C004EF11E038D04E9B01C034C0439515
:1402C8004431B8F34E9BFECF4E99FECF442729C0AA241AC09C
:1402DC004E9BFECF08C004E610E024D0639582E8861708F4C7
:1402F0001EC04E99F6CF2090B20226942092B202663420F042
:14030400822D80688093B2026627A3948A2D883018F384EBDA
:1403180092E0E42FFF27E80FF91F2090B202208243954230C7
:14032C00A8F2E2C0C6D0580105E010E09501B1D05801B69403
:14034000A794B694A7944427552702C04F5F5F4F4A155B0525
:14035400D8F3B8C04427552767DF64C0A8DF2090B50220945F
:140368003090B402321409F02FC0432D552780E091E0FA0125
:14037C00EE0FFF1FE80FF91F0081118124E630E053D02AE0E9
:1403900030E04CD0780180E091E0FA01EE0FFF1FE80FF91FBE
:1403A400008111812AE030E043D02AE030E03CD0680180E016
:1403B80091E0FA01EE0FFF1FE80FF91F008111812AE030E06E
:1403CC002FD058014427552725C023E082E992E0F701EE0F24
:1403E000FF1FE80FF91F008111813EDF22E082E992E0F601D6
:1403F400EE0FFF1FE80FF91F0081118100581F4F31DF21E0E1
:1404080082E992E0F501EE0FFF1FE80FF91F0081118126DFCB
:14041C004F5F5F4F4A30E0E05E07B8F29BCF08956894DA92B8
:14043000D12E04C0E894DA92D12ED32617FF04C01095009501
:140444000F5F1F4F37FF04C0309520952F5F3F4F0BD0D7FE88
:1404580004C0109500950F5F1F4FD9900895689401C0E89477
:14046C00EA92FA928A93EE24FF2480E1000F111FEE1CFF1C5D
:14048000E216F30618F0E21AF30A03958A95A1F716F40E2DE2
:140494001F2D8991F990E99008950A921A928A939A93029F1C
:1404A800C001129F900D039F900D8C019991899119900990DF
:1404BC0008955A934A93BA92AA920895A990B990499159915A
:1404D00008957A936A935A934A930895499159916991799142
:1404E40008957A936A935A934A93BA92AA920895A990B990EC
:1404F800499159916991799108955A934A93DA92CA92BA92AD
:12050C00AA920895A990B990C990D9904991599108955F
:00000001FF
